:100000000C944C050C9474050C9474050C947405B4
:100010000C9474050C9474050C9474050C9474057C
:100020000C9474050C9474050C9474050C94DA0CFF
:100030000C9474050C9474050C9474050C9474055C
:100040000C9466180C9474050C94A80C0C94820CF7
:100050000C9474050C9474050C9474050C9474053C
:100060000C949B0D0C947405DB40A4A62EAFDA0211
:1000700081DA1281DA02818F2000A1C8D300408D7D
:10008000AED580A800006000000000000000000065
:100090000000000000E00000000000000000000080
:1000A00000000001E000000000000000000000006F
:1000B000000001F00000000000000000000000004F
:1000C0000003F0000000000000000000000000003D
:1000D00007F0000000000000000000000000000722
:1000E000F8000000000000000000000000000FF811
:1000F00000000003C0007E000001E0007F0FF80058
:10010000000003C000FE000001E000FFEFF8000067
:100110000003C000FE000001E000FFFFF800000047
:1001200003C000F00000000F007FFE7FC00000034E
:10013000C000F00000000F003FFE7FF83FF1FBCF52
:10014000FCFEF3BC3DEFE01FFE7FFF7FFBFFDFFE09
:10015000FEFFBC3DEFE01FC6FFFF7FFBFFDFFEFEA3
:10016000FFBC3DEFE00FE3C7FE787BC3DE1EF0FF70
:10017000BC3DEF0007FF87FC787BC3DE1EF0F83C38
:100180003DEF0001FFFFF0007BC3C01EF0F03C3DDF
:10019000EF0001F37FE03FFBC3CFFEF0F03C3DEF0B
:1001A0000003E33F807FFBC3DFFEF0F03C3DEF0048
:1001B00007E73C00787BC3DE1EF0F03C3DEF000714
:1001C000FFBE00787BC3DE1EF0F03C3DEF0007FF72
:1001D000FE00787BC3DE1EF0F03C3DEF000FFFFE1B
:1001E000007FFBFFDFFEF0F03FFDEFE00FFFFF00C1
:1001F0007FFBFFDFFEF0F03FFDEFE00FF9FF003E79
:1002000079F9CF9EF0F01F3DE7E01FF1FF000000FD
:100210000000000000000000001F80FF007FFFFFC3
:10022000FFFFFFFFFFFFFFE01C007F007FFFFFFFDE
:10023000FEB46D888D18E000001F007FFFFFFFFEF9
:1002400095AD7DB577E000000F007FFFFFFFFEA5B5
:10025000AD9D8D19E0000006007FFFFFFFFEB5ADEC
:10026000EDB57EE00000000000018000000000000D
:1002700000000000038000000000000000000007F4
:10028000C000000000000000000007C000000000E7
:1002900000000000000FC00000000000000000008F
:1002A0001FE00000000000000000001FE000000050
:1002B0000000000000003FE000000000000000001F
:1002C000003FF00000000000000000007FF0000090
:1002D00000000000001FF87FF00000000000000098
:1002E0003FFE7FF0000000000000003FFF7FF000B5
:1002F0000000000000001FFFFBE000000000000005
:10030000000FFFF9FFC00000000000000FFFF9FF21
:10031000F800000000000007FFF1FFFF00000000F0
:10032000000003FC73FFFF80000000000001FE3F9F
:10033000FFFF80000000000000FF1E0FFF00000014
:10034000000000007FFE1FFC000000000000003FD6
:10035000FFFFF8000000000000000FDFFFE00000DA
:1003600000000000001F19FFC00000000000000096
:100370003F3CFF00000000000000007E7CF8000011
:100380000000000000007FFE7C0000000000000074
:1003900000FFFFFC0000000000000000FFFFFE0067
:1003A00000000000000000FFFFFE00000000000051
:1003B0000001FFEFFE0000000000000001FFCFFE83
:1003C0000000000000000003FF07FE000000000026
:1003D000000003FC07FE0000000000000003F00323
:1003E000FE00000000000000018000FE0000000090
:1003F0000000000000007E0000000000000000007F
:10040000003E000000000000000000000C000000A2
:10041000000000078000FC000003C000000007800F
:1004200001FC000003C0000000078001FC00000385
:10043000C0000000078001E00000001E000000076F
:100440008001E00000001E007FE3F79FF9FDE778E0
:100450007BDFC0FFF7FFBFFDFDFF787BDFC0FFF74D
:10046000FFBFFDFDFF787BDFC0F0F787BC3DE1FFFC
:10047000787BDE00F0F787BC3DE1F0787BDE0000A2
:10048000F787803DE1E0787BDE007FF7879FFDE125
:10049000E0787BDE00FFF787BFFDE1E0787BDE00E0
:1004A000F0F787BC3DE1E0787BDE00F0F787BC3DEC
:1004B000E1E0787BDE00F0F787BC3DE1E0787BDEB1
:1004C00000FFF7FFBFFDE1E07FFBDFC0FFF7FFBFED
:1004D000FDE1E07FFBDFC07CF3F39F3DE1E03E7B8D
:1004E000CFC00000000000000000000000FFFFFF80
:1004F000FFFFFFFFFFFFFFC0FFFFFFFFFD68DB11F6
:100500001A31C0FFFFFFFFFD2B5AFB6AEFC0FFFF50
:10051000FFFFFD4B5B3B1A33C0FFFFFFFFFD6B5B33
:10052000DB6AFDC000000000230026002900000057
:1005300000080002010000030407000000000000A2
:100540000000000103070F1F3F7F0080C0E0F0F8AC
:10055000FCFE00000000003E5B4F5B3E3E6B4F6BBD
:100560003E1C3E7C3E1C183C7E3C181C577D571C94
:100570001C5E7F5E1C00183C1800FFE7C3E7FF000D
:1005800018241800FFE7DBE7FF30483A060E26295B
:10059000792926407F050507407F05253F5A3CE71E
:1005A0003C5A7F3E1C1C08081C1C3E7F14227F22E4
:1005B000145F5F005F5F06097F017F006689956AAF
:1005C000606060606094A2FFA29408047E0408103A
:1005D000207E201008082A1C08081C2A08081E1063
:1005E0001010100C1E0C1E0C30383E3830060E3E1B
:1005F0000E06000000000000005F0000000700077A
:1006000000147F147F14242A7F2A122313086462A3
:1006100036495620500008070300001C2241000004
:1006200041221C002A1C7F1C2A08083E0808008062
:1006300070300008080808080000606000201008FA
:1006400004023E5149453E00427F400072494949FB
:10065000462141494D331814127F1027454545392D
:100660003C4A494931412111090736494949364631
:100670004949291E00001400000040340000000811
:1006800014224114141414140041221408020159B4
:1006900009063E415D594E7C1211127C7F49494941
:1006A000363E414141227F4141413E7F49494941D6
:1006B0007F090909013E414151737F0808087F0005
:1006C000417F41002040413F017F081422417F408B
:1006D0004040407F021C027F7F0408107F3E414162
:1006E000413E7F090909063E4151215E7F091929D2
:1006F00046264949493203017F01033F4040403FBC
:100700001F2040201F3F4038403F631408146303FC
:10071000047804036159494D43007F41414102047B
:10072000081020004141417F040201020440404082
:100730004040000307080020545478407F28444478
:10074000383844444428384444287F385454541892
:1007500000087E090218A4A49C787F08040478008D
:10076000447D40002040403D007F1028440000416F
:100770007F40007C047804787C0804047838444482
:100780004438FC1824241818242418FC7C08040479
:1007900008485454542404043F44243C4040207CE2
:1007A0001C2040201C3C4030403C44281028444C35
:1007B0009090907C4464544C440008364100000002
:1007C000770000004136080002010204023C2623A3
:1007D000263C1EA1A161123A4040207A385454555B
:1007E0005921555579412254547842215554784025
:1007F00020545579400C1E527212395555555939AD
:100800005454545939555454580000457C41000201
:10081000457D420001457C407D1211127DF0282566
:1008200028F07C545545002054547C547C0A097FA0
:100830004932494949323A4444443A324A484830B4
:100840003A4141217A3A42402078009DA0A07D3D66
:100850004242423D3D4040403D3C24FF2424487EEE
:100860004943662B2FFC2F2BFF0929F620C0887ED9
:10087000090320545479410000447D413048484ADE
:1008800032384040227A007A0A0A727D0D19317D91
:100890002629292F28262929292630484D40203865
:1008A0000808080808080808382F10C8ACBA2F1024
:1008B0002834FA00007B000008142A142222142A8B
:1008C00014085500550055AA55AA55AAFF55FF55BD
:1008D000FF000000FF00101010FF00141414FF00B0
:1008E0001010FF00FF1010F010F0141414FC00148E
:1008F00014F700FF0000FF00FF1414F404FC1414AC
:1009000017101F10101F101F1414141F00101010A8
:10091000F0000000001F101010101F10101010F039
:1009200010000000FF101010101010101010FF1019
:10093000000000FF140000FF00FF00001F10170060
:1009400000FC04F414141710171414F404F4000039
:10095000FF00F714141414141414F700F7141414EB
:10096000171410101F101F141414F4141010F0108A
:10097000F000001F101F0000001F14000000FC14F6
:100980000000F010F01010FF10FF141414FF1410EA
:1009900010101F00000000F010FFFFFFFFFFF0F03D
:1009A000F0F0F0FFFFFF0000000000FFFF0F0F0F4F
:1009B0000F0F3844443844FC4A4A4A347E02020647
:1009C00006027E027E0263554941633844443C047A
:1009D000407E201E2006027E020299A5E7A5991CF2
:1009E0002A492A1C4C7201724C304A4D4D30304815
:1009F000784830BC625A463D3E494949007E010173
:100A0000017E2A2A2A2A2A44445F444440514A4407
:100A10004040444A51400000FF0103E080FF0000D5
:100A200008086B6B083612362436060F090F0600CD
:100A30000018180000001010003040FF0101001FD6
:100A400001011E00191D1712003C3C3C3C00000037
:100A500000002200FF210000000000250028002BDC
:100A60000000000000240027002A000404040404FD
:100A7000040404020202020202030303030303014B
:100A80000204081020408001020408102001020422
:100A900008102000F021B01811241FBECFEFD8E0BD
:100AA000DEBFCDBF12E0A0E0B1E0E0E3F1E502C0BF
:100AB00005900D92AA3FB107D9F725E0AAEFB2E061
:100AC00001C01D92AF31B207E1F715E0CBE4D5E0EC
:100AD00004C02197FE010E94CF23CA34D107C9F771
:100AE0000E94CF180C948B280C940000CF92DF92B8
:100AF000EF92FF920F931F93CF93DF936C017A01D4
:100B00008B01C0E0D0E0CE15DF0581F0D8016D91FA
:100B10008D01D601ED91FC910190F081E02DC6018F
:100B20000995892B11F02196EECF7E01C701DF9147
:100B3000CF911F910F91FF90EF90DF90CF9008958C
:100B4000FC01538D448D252F30E0842F90E0821BD3
:100B5000930B541710F0CF96089501970895FC0158
:100B6000918D828D981761F0828DDF01A80FB11DE4
:100B70005D968C91928D9F5F9F73928F90E0089508
:100B80008FEF9FEF0895FC01918D828D981731F0C2
:100B9000828DE80FF11D858D90E008958FEF9FEF16
:100BA0000895FC01918D228D892F90E0805C9F4FEC
:100BB000821B91098F739927089580EB93E00E941F
:100BC000D10521E0892B09F420E0822F0895FC0152
:100BD000848DDF01A80FB11DA35ABF4F2C91848DC6
:100BE00090E001968F739927848FA689B7892C93FB
:100BF000A089B1898C91837080648C93938D848D4E
:100C0000981306C00288F389E02D80818F7D808350
:100C10000895EF92FF920F931F93CF93DF93EC0110
:100C200081E0888F9B8D8C8D981305C0E889F989A8
:100C3000808185FD26C0F62E0B8D10E00F5F1F4FC3
:100C40000F731127E02E8C8DE8120CC00FB607FC35
:100C5000FACFE889F989808185FFF5CFCE010E941E
:100C6000E705F1CF8B8DFE01E80FF11DE35AFF4F31
:100C7000F0829FB7F8940B8FEA89FB8980818062AC
:100C80000AC09FB7F894EE89FF896083E889F989E3
:100C900080818370806480839FBF81E090E0DF91DA
:100CA000CF911F910F91FF90EF900895CF93DF9315
:100CB000EC01888D8823C9F0EA89FB89808185FD54
:100CC00005C0A889B9898C9186FD0FC00FB607FCB5
:100CD000F5CF808185FFF2CFA889B9898C9185FFF6
:100CE000EDCFCE010E94E705E7CFDF91CF910895C8
:100CF00080E090E0892B29F00E94DD0581110C94A1
:100D00000000089585ED8093BC008091BC0084FDB7
:100D1000FCCF10928B03089540913A03262F30E0C8
:100D2000240F311D21323105DCF420918B03243056
:100D3000C9F4FC0180E090E0861758F430913A0342
:100D40002191DC01A65EBC4FA30FB11D2C9301962F
:100D5000F3CF80913A03680F60933A0380E00895DF
:100D600081E0089582E00895089508950895E0913E
:100D7000630380916203E81730F4F0E0E650FD4F22
:100D8000808190E008958FEF9FEF08959091630325
:100D900080916203981750F4E92FF0E0E650FD4F80
:100DA000208130E09F5F9093630302C02FEF3FEFFD
:100DB000C90108958091620390E020916303821B32
:100DC00091090895CF92DF92EF92FF920F931F93B4
:100DD000CF93DF937C01CB018A0120918C032223E6
:100DE00089F0EB016B01C40ED51ECC15DD0569F051
:100DF0006991D701ED91FC910190F081E02DC7013F
:100E00000995F3CF642F0E948C06C801DF91CF9122
:100E10001F910F91FF90EF90DF90CF900895CF93A7
:100E2000DF931F92CDB7DEB7698320918C03222315
:100E3000D1F02091AF03203240F021E030E0FC01FE
:100E40003383228380E090E015C080918D03E82FEA
:100E5000F0E0E257FC4F998190838F5F80938D0380
:100E60008093AF0305C061E0CE0101960E948C061D
:100E700081E090E00F90DF91CF910895FC0177FD24
:100E8000B9C080859185681779070CF0B3C057FD0C
:100E9000B1C082859385481759070CF0089585895C
:100EA000823079F484819581DC01A61BB70BBD01EA
:100EB0006150710986819781DC01A41BB50BAD01DE
:100EC0000EC0833009F084C064277527CA018627C5
:100ED00097276827792746815781481B590B41502E
:100EE00051092130310531F048F12230310509F442
:100EF0004AC00895CA0157FD07969C01A3E03595A5
:100F00002795AA95E1F7A481B5812A9FC0012B9F5F
:100F1000900D3A9F900D1124680F791F068CF78D64
:100F2000E02DE60FF71F4770552781E090E001C0E4
:100F3000880F4A95EAF79081892B48C0CA0157FD6E
:100F400007969C0193E0359527959A95E1F7A48142
:100F5000B5812A9FC0012B9F900D3A9F900D1124BF
:100F6000680F791F068CF78DE02DE60FF71F47708D
:100F7000552781E090E001C0880F4A95EAF78095F7
:100F80009081892323C0CA0157FD07969C0183E005
:100F9000359527958A95E1F7A481B5812A9FC001EF
:100FA0002B9F900D3A9F900D1124680F791F068C8E
:100FB000F78DE02DE60FF71F4770552781E090E091
:100FC00001C0880F4A95EAF79081892780830895A8
:100FD000813009F086CF6427752746275727642775
:100FE000752784819581DC01A61BB70BBD0161507B
:100FF000710977CF08950895FC016370658B848132
:10100000958126813781613039F0633029F09187ED
:101010008087338722870895318720879387828747
:1010200008956F927F928F929F92AF92BF92CF92CC
:10103000DF92EF92FF920F931F93CF93DF93EC0118
:101040004B015A0169013801E881F9810284F38575
:10105000E02D0995E881F9810288F389E02D870167
:101060009601A501B401CE010995A501460D571DB4
:1010700041505109E881F9810288F389E02D9601F8
:10108000B401CE010995E881F9810088F189E02D4C
:101090009301A501B401CE010995C80CD91CB60174
:1010A00061507109E881F9810088F189E02D93018F
:1010B000A501CE010995E881F9810688F789E02D1F
:1010C000CE01DF91CF911F910F91FF90EF90DF90B4
:1010D000CF90BF90AF909F908F907F906F9009942A
:1010E0008F929F92AF92BF92CF92DF92EF92FF9238
:1010F0000F931F93CF93DF934C016B015A01E901CA
:10110000DC01ED91FC916217730781F40417150758
:1011100024F48B2D5801042F182F0A191B0998014C
:101120002F5F3F4F048CF58DE02D12C04017510703
:1011300009F52617370724F48D2D6901C62FD82FFE
:101140009E012C193D092F5F3F4F068CF78DE02D36
:101150008701A501B601C4010995DF91CF911F91C7
:101160000F91FF90EF90DF90CF90BF90AF909F9046
:101170008F9008950284F385E02D0995D401ED91B7
:10118000FC910488F589E02D9E01A501B601C401FA
:101190000995D401ED91FC910688F789E02DC401F1
:1011A000DF91CF911F910F91FF90EF90DF90CF9043
:1011B000BF90AF909F908F900994EF92FF920F9302
:1011C0001F93DC011A960D911C911B9718962D9177
:1011D0003C911997ED91FC9100A0F1A1E02D7B01CC
:1011E00040E050E060E070E009951F910F91FF90A2
:1011F000EF9008954F925F926F927F928F929F929D
:10120000AF92BF92CF92DF92EF92FF920F931F9314
:10121000CF93DF936C012B015A0139014801DC01A6
:10122000ED91FC910284F385E02D0995E201640CB7
:10123000751CD601ED91FC91C615D7055CF40088AC
:10124000F189E02D87019401A501BE01C601099530
:101250002196EFCF0688F789E02DC601DF91CF9167
:101260001F910F91FF90EF90DF90CF90BF90AF90C4
:101270009F908F907F906F905F904F9009948F9286
:101280009F92AF92BF92CF92DF92EF92FF920F9315
:101290001F93CF93DF93EC015B014A016901E88161
:1012A000F9810284F385E02D099595012C0D3D1DF2
:1012B00021503109E881F9810488F589E02D780110
:1012C0008401A401B501CE010995E881F981068860
:1012D000F789E02DCE01DF91CF911F910F91FF9003
:1012E000EF90DF90CF90BF90AF909F908F90099438
:1012F0008F929F92AF92BF92CF92DF92EF92FF9226
:101300000F931F93CF93DF93EC015B014A016901B7
:101310007801E881F9810284F385E02D0995C80CF4
:10132000D91C860101501109E881F9810488F589E9
:10133000E02D9501A401B501CE010995E881F9815F
:101340000688F789E02DCE01DF91CF911F910F9193
:10135000FF90EF90DF90CF90BF90AF909F908F90D5
:101360000994EF92FF920F931F93DC01ED91FC9192
:1013700000A0F1A1E02D09951F910F91FF90EF9032
:1013800008950F931F93DC01ED91FC91068CF78D6E
:10139000E02D09951F910F9108950F931F93DC0184
:1013A000ED91FC91048CF58DE02D09951F910F9125
:1013B0000895DC01ED91FC910084F185E02D099404
:1013C0002F923F924F925F926F927F928F929F9255
:1013D000AF92BF92CF92DF92EF92FF920F931F9343
:1013E000CF93DF9300D000D000D0CDB7DEB72C0173
:1013F0007E836D836A015901C801FC82EB8248013A
:10140000841A950A97FE03C091948194910835013E
:101410002D813E81621A730A77FE03C07194619434
:101420007108681479045CF43A2D2B2D5C01832F2C
:10143000922F3D812E81DE82CD82C32ED22EAD81B0
:10144000BE81AA16BB065CF43C2D2D2D6C01832FAA
:10145000922F3D812E81BE82AD82A32EB22E8501B8
:101460002D813E81021B130B1C012C183D0837FEF9
:1014700003C0319421943108780117FF03C03FEF76
:10148000E31AF30AF594E794C816D9062CF08FEF07
:101490009FEF9A83898304C0A1E0B0E0BA83A98357
:1014A0002D813E81A216B30624F1D201ED91FC916B
:1014B0000484F585E02D2B813C816814790424F4A3
:1014C0004D815E81B60103C0A6016D817E81C2019E
:1014D0000995E218F308F7FE06C029813A81C20E89
:1014E000D31EE00EF11E8D819E8101969E838D8319
:1014F000D7CF26960FB6F894DEBF0FBECDBFDF91D3
:10150000CF911F910F91FF90EF90DF90CF90BF9000
:10151000AF909F908F907F906F905F904F903F9093
:101520002F900895089580E090E008950E94BC25D2
:101530000F931F93CF93DF93DC015596EC91559752
:10154000E23071F0E330E9F0E13079F5FB01149617
:101550000D90BC91A02DA41BB50BA21BB30B18C002
:10156000EC01EC81FD81E61BF70BBF0161507109B5
:10157000EE81FF81DF01A41BB50BAD01421B530BB4
:1015800014C0DA01EC01EE81FF81E61BF70B319705
:10159000F7FD0DC0EC014E815F81E417F5073CF4C7
:1015A000AF01BD010E94FA1202C00E946113DF91D7
:1015B000CF911F910F9108950F931F93DC015596C2
:1015C000EC915597E23061F0E33009F1E13081F5BB
:1015D0001496ED91FC911597E41BF50B319723C000
:1015E000DC011496ED91FC911597DF01A61BB70B5A
:1015F000BD01DC011696ED91FC911797DF01A41B4C
:10160000B50BAD0141505109621B730B11C0FA01BA
:10161000DC0116964D915C911797DA01A61BB70B6A
:10162000BD01621B730BAB01BF010E9461130CC0B3
:1016300057FD0AC0DC011696ED91FC9117974E17E5
:101640005F0714F40E94FA121F910F910895AF9250
:10165000BF92CF92EF92FF920F931F93CF93DF939E
:10166000EC01262F888D998D009709F040C06A30D3
:1016700059F41D861C862C898E859F8538E0239F12
:10168000800D911D112441C06D3009F4AAC08E89CE
:101690008823C1F03C898C859D8546E0349F800D70
:1016A000911D112448855985481759075CF41D86FA
:1016B0001C868E859F8548E0349F800D911D1124E6
:1016C0009F878E87EA88FB88088919894E855F8500
:1016D0006C857D85CC88CE010E94E0102C898C859C
:1016E0009D8536E0239F800D911D112442C06A30F4
:1016F00079F41D861C862C89FC013696E4918E8532
:101700009F852E9F800D911D11249F878E8769C014
:101710006D3009F466C0FC0134963491631708F407
:1017200060C03196E491E61708F45BC0FC01329684
:1017300065917491422F50E0431B510937E0349F6B
:101740005001359FB00C1124A60EB71EF50132963C
:1017500034913196E491332311F0E1110DC0F5017C
:101760003496E4912C898C859D85E29F800D911D96
:1017700011249D878C8735C0F501359644915E898B
:10178000552311F16C89E32FF0E0E40FF11D47FDC3
:10179000FA956E9FD0016F9FB00D11244C855D8529
:1017A0004A0F5B1FE885F985E417F5076CF41D8681
:1017B0001C86FC013696E4918E859F856E9F800D78
:1017C000911D11249F878E87EA88FB8808891989D3
:1017D0004E855F856C857D85CC88CE010E94E010AA
:1017E000BECF81E090E0DF91CF911F910F91FF90EC
:1017F000EF90CF90BF90AF900895EF92FF920F932C
:101800001F93CF93DF93EC017B018A01888199813B
:10181000009729F02A813B8124173507F8F4B80195
:101820006F5F7F4F0E94F624009759F09983888359
:101830001B830A832C813D81232B81F4FC011082C0
:101840000DC088819981009711F00E946D24198242
:1018500018821D821C821B821A8207C01D830C8382
:10186000B701888199810E94D125CE01DF91CF9166
:101870001F910F91FF90EF900895FB01DC011196ED
:101880001C921E9213961C921E92129715961C92F1
:101890001E9214978617970749F060817181611530
:1018A000710521F0448155810C94FD0B089561155B
:1018B000710579F0FB0101900020E9F73197AF0144
:1018C000461B570BDC01ED91FC910280F381E02D6A
:1018D000099480E090E008950F931F93CF93DF93D6
:1018E000EC010E94570C8C0166E571E0CE010E946C
:1018F000570C800F911FDF91CF911F910F91089589
:101900000C94570C1F920F920FB60F9211242F9325
:101910003F934F935F936F937F938F939F93AF9377
:10192000BF93EF93FF9380EB93E00E94E705FF9155
:10193000EF91BF91AF919F918F917F916F915F9147
:101940004F913F912F910F900FBE0F901F901895C0
:101950001F920F920FB60F9211242F938F939F9384
:10196000EF93FF93E091C003F091C1038081E09178
:10197000C603F091C70382FD12C090818091C90314
:101980008F5F8F732091CA03821751F0E091C903D2
:10199000F0E0E055FC4F958F8093C90301C0808132
:1019A000FF91EF919F918F912F910F900FBE0F900C
:1019B0001F9018951F920F920FB60F9211242F931C
:1019C0003F934F935F936F937F938F939F93AF93C7
:1019D000BF93EF93FF9380915D0387FF05C0109243
:1019E0008500109284001BC020915D03022E000C24
:1019F000330B8091E80490E02817390784F4809134
:101A00005D03082E000C990BFC01EE0FFF1F8E0FDB
:101A10009F1FFC01EC53FB4F808186FD15C0809118
:101A20005D038F5F80935D0320915D03022E000CA8
:101A3000330B8091E80490E028173907C4F48091B3
:101A40005D038C3064F113C080915D03082E000C9F
:101A5000990BFC01EE0FFF1F8E0F9F1FFC01EC5333
:101A6000FB4F808160E08F730E943F14D8CF80913C
:101A7000840090918500049680349C4918F480E499
:101A80009CE905C080918400909185000496909314
:101A90008900809388008FEF80935D033BC0209185
:101AA00084003091850080915D03082E000C990B15
:101AB000FC01EE0FFF1F8E0F9F1FFC01EC53FB4F2D
:101AC00081819281820F931F909389008093880077
:101AD00080915D03082E000C990BFC01EE0FFF1F97
:101AE0008E0F9F1FFC01EC53FB4F808186FF12C0BD
:101AF00080915D03082E000C990BFC01EE0FFF1F77
:101B00008E0F9F1FFC01EC53FB4F808161E08F73B0
:101B10000E943F14FF91EF91BF91AF919F918F91E0
:101B20007F916F915F914F913F912F910F900FBED9
:101B30000F901F9018951F920F920FB60F921124BD
:101B40002F933F934F935F936F937F938F939F93C5
:101B5000AF93BF93EF93FF938091B900887F803656
:101B600009F49CC068F5883209F45BC090F48031B8
:101B700009F454C038F4882309F4F6C0883009F415
:101B80004DC0F6C0883109F44CC0803209F45DC004
:101B9000EFC0803409F468C048F4803309F455C0BC
:101BA000883309F0E5C080938903D8C0803509F4F3
:101BB0004FC0883509F45DC0883409F0D9C0D6C05B
:101BC000883909F4C7C0A8F4883709F467C038F425
:101BD000883609F463C0803709F460C0C9C088380A
:101BE00009F4B8C0803909F45FC0803809F0C0C07A
:101BF0005BC0803B09F486C038F4803A09F466C0C3
:101C0000883A09F47FC0B4C0803C09F4A7C0883C7E
:101C100009F4A4C0883B09F48AC0AAC08091660375
:101C200010C09091880380918703981770F5E09118
:101C3000880381E08E0F80938803F0E0E959FC4F20
:101C400080818093BB0085EC86C0809389038EC021
:101C5000E091880381E08E0F809388038091BB0020
:101C6000F0E0E959FC4F80839091880380918703CD
:101C70006EC0E091880381E08E0F8093880380918D
:101C8000BB00F0E0E959FC4F808380918A03811109
:101C90006DC081E08093650384EA61C083E0809336
:101CA0008B0310925C03CFCF80915C03803208F0ED
:101CB00051C0E0915C0381E08E0F80935C038091C2
:101CC000BB00F0E0E45CFC4F8083BDCF85EC8093EB
:101CD000BC0010928B0380915C03803230F4E09161
:101CE0005C03F0E0E45CFC4F108260915C0370E008
:101CF000E0915E03F0915F038CE393E0099510920D
:101D00005C0336C084E080938B0310923B031092F7
:101D10003A03E0916003F0916103099580913A03E1
:101D2000811105C081E080933A0310921A03E0917B
:101D30003B0381E08E0F80933B03F0E0E65EFC4FB7
:101D400080818093BB0090913B0380913A03981768
:101D500008F479CF85E88093BC000AC085EC8093B5
:101D6000BC0010928B0304C0109289030E9482066B
:101D7000FF91EF91BF91AF919F918F917F916F9163
:101D80005F914F913F912F910F900FBE0F901F9039
:101D900018958EBD00000DB407FEFDCF8EB50895D9
:101DA0001F93CF93DF93FC01848D958D009729F1CC
:101DB000162FEF0120A131E030938C032093AE0366
:101DC00010928D031092AF03DC01ED91FC91019014
:101DD000F081E02D60E009958C8D9D8DDC01ED9109
:101DE000FC910190F081E02D612F09958C8D9D8DE6
:101DF000DF91CF911F910C94E816A4A5B5A59C91F5
:101E000082A9809589238C93828D938D892B31F0C3
:101E1000862FDF91CF911F910C94C90E28E030E0FE
:101E200080E8A0A5B1A590A9462F482319F04C91B0
:101E3000942B03C04C91909594239C93A2A5B3A599
:101E40004C9191A9942B9C93A2A5B3A54C9191A9D7
:101E5000909594239C9386952150310911F7DF9139
:101E6000CF911F91089508958CBD9DBD08951F9336
:101E7000CF93DF93EC01162F8C8D9D8D892BB1F0C4
:101E80002EA93FA948AD59AD60E074E284EF90E01F
:101E90000E946323DA01C9014097A109B109B695EF
:101EA000A795979587958093B8000FC08A8D9B8DD5
:101EB000892B21F08CA99DA90E94340FEEA5FFA5C6
:101EC00090818BA9809589238083111102C066EAD5
:101ED00001C067EACE010E94D00E8C8D9D8D892BAA
:101EE000B1F02AAD3BAD4CAD5DAD60E074E284EF86
:101EF00090E00E946323DA01C9014097A109B1096A
:101F0000B695A795979587958093B80006C0EEA5DE
:101F1000FFA590818BA9892B8083DF91CF911F91A1
:101F20000895EF92FF920F931F93CF93DF938091C9
:101F3000690490916A04892BD1F020918304309137
:101F40008404409185045091860460E074E284EF3B
:101F500090E00E946323DA01C9014097A109B10909
:101F6000B695A795979587958093B80016C08091F0
:101F7000670490916804892B31F0809181049091DD
:101F800082040E94340FE0917B04F0917C049081E4
:101F90008091800480958923808365E082E59AE0C2
:101FA0000E9444176091510461508DE494E00E94B6
:101FB000D00E2091530430915404C901079697FD27
:101FC000079633E0959587953A95E1F7209151046E
:101FD00030915204829F8001839F100D929F100DBB
:101FE0001124C0916B04D0916C048091690490918C
:101FF0006A040C0F1D1F009709F44CC020916D045A
:1020000031E030938C032093AE0310928D03109235
:10201000AF03DC01ED91FC910190F081E02D60E4D3
:102020000995FF24F394EE24E39480916904909140
:102030006A040C171D0759F1BFE1BF15D0F40E94C7
:10204000E81680916D04E0928C038093AE031092A9
:102050008D031092AF038091690490916A04DC01B2
:10206000ED91FC910190F081E02D60E40995FF2451
:10207000F3948091690490916A046991DC01ED9177
:10208000FC910190F081E02D0995F394CECF0E9450
:10209000E81641C0E0917904F0917A049081809132
:1020A0007F04892B80830C171D07A9F1899120914A
:1020B000670430916804232B19F00E94C90EF3CFF6
:1020C00028E030E040E8E0917504F09176049091CA
:1020D0007D04582F542319F05081952B03C0508153
:1020E000909595239083E0917704F0917804508146
:1020F00090917E04952B9083E0917704F091780481
:10210000508190917E04909595239083469521501F
:102110003109C9F6C8CF8091690490916A04892B6E
:10212000D1F0209187043091880440918904509126
:102130008A0460E074E284EF90E00E946323DA0195
:10214000C9014097A109B109B695A79597958795BB
:102150008093B80017C0E0917B04F0917C049081DB
:1021600080918004892B808380916704909168041A
:10217000892B41F0DF91CF911F910F91FF90EF904C
:102180000C94330FDF91CF911F910F91FF90EF903F
:102190000895CF93DF93FC01448155816081718163
:1021A0008DE494E00E947605EC0166E571E08DE433
:1021B00094E00E94570C8C0F9D1FDF91CF910895E2
:1021C0002F923F924F925F926F927F928F929F9247
:1021D000AF92BF92CF92DF92EF92FF920F931F9335
:1021E000CF93DF93CDB7DEB76B970FB6F894DEBF12
:1021F0000FBECDBF9B8F8A8F5B011A01D22E1F832A
:102200000E833701C982DC0158962D913C91599774
:102210002115310509F0E6C018968D919C9119970A
:10222000681779070CF0CDC11A968D919C911B9778
:10223000481759070CF0C5C18C2C912CFB0126E0E6
:10224000C29EE00DF11D1124FB87EA871E161F06B2
:102250000CF0B7C1A40183E0440F551F8A95E1F744
:102260005D874C87CA01820D931D181619060CF064
:10227000A8C157968C91811104C05FEA5D1508F4DE
:10228000D394AA8DBB8DED91FC9111970284F385B7
:10229000E02DCD010995B5E0DB9EC0011124F501CB
:1022A0003596FF87EE87BB82AA8225019C012A19F9
:1022B0003B09398B288BA101485F5F4F5B8B4A8BB1
:1022C000E889F989E40DF51DEE5AFA4F54915887C3
:1022D00061013D822C82888580FF13C0AA8DBB8D51
:1022E000ED91FC91B981B13031F40484F585E02D94
:1022F0002E813F8116C00684F785E02DEE80FF8099
:102300001AC0EE81FF81E615F705F1F0AA8DBB8DAD
:10231000ED91FC91B981B13051F40484F585E02D43
:102320009301A601B2018A8D9B8D09950DC006848B
:10233000F785E02D7301840194014C815D816A81F0
:102340007B818A8D9B8D0995E885E695E887FFEF6F
:10235000CF1ADF0A2C813D81280D391D3D832C8346
:102360004A895B89C416D50609F0B5CF5FEF451AD7
:10237000550A8A819B81880D991D9B838A83AE852E
:10238000BF854A165B0609F09BCFEE81FF81E615FB
:10239000F70509F4F4C0EA8DFB8DA081B181F981C4
:1023A000F13079F4B5016B5F7F4F5096ED91FC9160
:1023B0005197830128E030E0A1018A8D9B8D09951A
:1023C000DEC06A857B85681979091E96ED91FC91BE
:1023D0001F9773010C851D859401A1018A8D9B8D2A
:1023E0000995CDC0F9013496E491DE1AF9013296CF
:1023F00085919491B7E0DB9E800D911D1124F90128
:10240000259134913B8B2A8BFC0125913491290134
:10241000FC013296C490319634913E8732961491E5
:102420003196D4904981423058F0612E012E000C33
:1024300077088D2D0D2C000C990B9987888704C087
:1024400019861886612C712CAA8DBB8DED91FC919B
:1024500011970284F385E02DCD010995B9818B2E6A
:10246000912C689CC001699C900D789C900D112462
:10247000FC01EA0DFB1DFD87EC871A82712C612C93
:10248000E12F110FFF0B95012E0F3F1F3B872A876E
:10249000AC0CB11CA5014E0F5F1F5F8B4E8BC101B1
:1024A0008D0D911DD7FC9A95998F888F9E85691601
:1024B00008F065C0862D90E048855985480F591F62
:1024C000489D9001499D300D589D300D1124D1013A
:1024D000A20FB31FB98BA88BEC85FD85FD83EC8320
:1024E000AA84BB84DA80FA85DF1A288D398D280FFB
:1024F000391F3D8B2C8B8D2D8A0D4E895F89A4163B
:10250000B506C1F1877041F4C2010196EA89FB89E1
:10251000E40DF51D74902C0177FE21C0AA8DBB8DB2
:10252000ED91FC91B981B13061F40484F585E02D21
:102530002E813F814C895D89B5018A8D9B8D0995DE
:102540000EC00684F785E02DEE80FF8084019401A3
:10255000488959896C817D818A8D9B8D0995770C7D
:10256000EFEFAE1ABE0A2C813D81280D391D3D8347
:102570002C83C1CF3A813C0D3A83639497CFAA8DC7
:10258000BB8DED91FC9111970688F789E02DCD0167
:102590006B960FB6F894DEBF0FBECDBFDF91CF9123
:1025A0001F910F91FF90EF90DF90CF90BF90AF9071
:1025B0009F908F907F906F905F904F903F902F9063
:1025C00009946B960FB6F894DEBF0FBECDBFDF91B6
:1025D000CF911F910F91FF90EF90DF90CF90BF9020
:1025E000AF909F908F907F906F905F904F903F90B3
:1025F0002F9008950F931F93CF93DF9377FF04C01D
:10260000260F371F60E070E0DC011496CD91DC915D
:102610001597FB01E20FF31FCE17DF071CF49E0195
:10262000261B370B121613060CF046C0FA0157FD95
:102630003796DF01E3E0B595A795EA95E1F7AC9F02
:10264000F001AD9FF00DBC9FF00D11246E0F7F1FA8
:10265000DC015E96ED91FC915F97E60FF71F4770E6
:10266000552781E090E001C0880F4A95EAF7482F8E
:102670000130110539F078F002301105E9F42E0F20
:102680003F1F13C02E0F3F1FE217F307A9F08081F1
:10269000842B8193F9CF80952E0F3F1FE217F3070C
:1026A00059F0908198239193F9CFE217F30721F025
:1026B000808184278193F9CFDF91CF911F910F9172
:1026C0000895EF92FF920F931F93CF93DF93EC0146
:1026D00077FDA5C0EC80FD806E157F050CF09FC0D6
:1026E00057FF04C0240F351F40E050E08E819F81CA
:1026F000FA01E20FF31F8E179F071CF49C01241BA5
:10270000350B121613060CF08AC0922F842F869573
:10271000869586958E9DD0018F9DB00D11246A0FF0
:102720007B1FAE8DBF8DA60FB71F4770B1F188E03C
:10273000841B482F682F70E0FB01E65BFA4FE491A1
:10274000281798F4621B71092FEF30E002C035950D
:1027500027956A95E2F7E2230130110549F078F0F8
:102760000230110509F05BC00EC00130110519F4EB
:102770008C91E82B0AC00130110508F049C0E095A2
:102780008C91E82302C08C91E827EC93941708F40D
:1027900046C02C813D81A20FB31FE92FE41BE83016
:1027A000F8F00230110561F48E2F9C9190959C9366
:1027B0002C813D81A20FB31F88508830B0F70FC025
:1027C00081E00115110509F480E081959E2F8C931D
:1027D0002C813D81A20FB31F98509830C0F7E7704D
:1027E000EE23E9F0F0E0EE5BFA4FE49101301105E1
:1027F00039F048F00230110591F48C91E82706C0B9
:102800008C91E82B03C0E0958C91E823EC9307C0F2
:102810000230110509F4B7CFAE0DBF1DBECFDF9159
:10282000CF911F910F91FF90EF900895833081F029
:1028300028F4813099F08230A1F008958730A9F012
:102840008830B9F08430D1F4809180008F7D03C04E
:10285000809180008F7780938000089584B58F7772
:1028600002C084B58F7D84BD08958091B0008F77BC
:1028700003C08091B0008F7D8093B00008951F93B6
:10288000CF93DF93282F30E0F901E25DFA4F849176
:10289000F901E158F54FD491F901E559F54FC4918B
:1028A000CC23C1F0162F81110E941614EC2FF0E0FA
:1028B000EE0FFF1FE95AF54FA591B4919FB7F89419
:1028C000111104C08C91D095D82302C0EC91DE2B5D
:1028D000DC939FBFDF91CF911F9108958F929F92BC
:1028E000AF92BF92CF92DF92EF92FF926B017C0189
:1028F0000E9441184B015C01C114D104E104F104B0
:10290000F1F00E944118DC01CB0188199909AA094C
:10291000BB09883E9340A105B10570F321E0C21ABE
:10292000D108E108F10888EE880E83E0981EA11C0A
:10293000B11CC114D104E104F10419F7DDCFFF90FB
:10294000EF90DF90CF90BF90AF909F908F900895C1
:10295000DF92EF92FF920F931F93CF93DF9300D0FC
:1029600000D000D0CDB7DEB78C010E9426168BE0D8
:10297000809FB001819F700D11248B010C561B4F5D
:10298000F801E284F38460567B4FCE0101960E94E9
:102990003D0CF801D2880389148981E08093610499
:1029A00010925A041092590410925C0410925B0425
:1029B00080918F0490919004A0919104B091920421
:1029C0008A389C40A105B10519F46CE572E002C09B
:1029D00068E472E08DE494E00E94800C6FEC72E099
:1029E0008DE494E00E94800CCE0101960E94C910F3
:1029F00010925A041092590488E090E090935C047D
:102A000080935B0480918F0490919004A091910435
:102A1000B09192048B389C40A105B10519F46CE586
:102A200072E002C068E472E08DE494E00E94800CE1
:102A300065ED72E08DE494E00E94800CA701FF0C2C
:102A4000660B770B8DE494E00E94A51566E571E0B6
:102A50008DE494E00E94570C10925A04109259048D
:102A600080E190E090935C0480935B0480918F04FC
:102A700090919004A0919104B09192048C389C4064
:102A8000A105B10519F46CE572E002C068E472E0DA
:102A90008DE494E00E94800C61EE72E08DE494E09D
:102AA0000E94800C6D2D8DE494E00E94270B66E55A
:102AB00071E08DE494E00E94570C10925A04109239
:102AC000590488E190E090935C0480935B048091CA
:102AD0008F0490919004A0919104B09192048D384C
:102AE0009C40A105B10519F46CE572E002C068E4F0
:102AF00072E08DE494E00E94800C67EE72E08DE459
:102B000094E00E94800CA801110F660B770B8DE4F6
:102B100094E00E94A51566E571E08DE494E00E94C2
:102B2000570C0E94910F89819A810E946D242696EC
:102B30000FB6F894DEBF0FBECDBFDF91CF911F91CE
:102B40000F91FF90EF90DF9008954F925F926F92F8
:102B50007F928F929F92AF92BF92CF92DF92EF922D
:102B6000FF920F931F93CF93DF93CDB7DEB7A1975B
:102B70000FB6F894DEBF0FBECDBF8C016A017B019A
:102B800077FF2FC0DC01ED91FC910190F081E02DE9
:102B90006DE209955C0122273327A9012C193D0913
:102BA0004E095F0919A2FE01B1967F019AE0492EF4
:102BB000512C612C712CCA01B901A30192010E9410
:102BC0006323605DD7016E937D01211531054105B9
:102BD000510589F7BD01C8010E94570C8A0D9B1D44
:102BE0001EC09A01AB0119A2FE01B1967F018AE0D5
:102BF000882E912CA12CB12CCA01B901A5019401F8
:102C00000E946323605DD7016E937D01211531051C
:102C10004105510589F7BD01C8010E94570CA196D5
:102C20000FB6F894DEBF0FBECDBFDF91CF911F91DD
:102C30000F91FF90EF90DF90CF90BF90AF909F905B
:102C40008F907F906F905F904F90089520915304E4
:102C500030915404C901079697FD079623E0959596
:102C600087952A95E1F72091510430915204829F73
:102C7000A001839F500D929F500D112460E070E0E1
:102C800080916B0490916C040C94CA253F924F92F2
:102C90005F926F927F928F929F92AF92BF92CF92EC
:102CA000DF92EF92FF920F931F93CF93DF9300D0A9
:102CB00000D000D0CDB7DEB72C013B014A0159014D
:102CC000C901079697FD07969C0193E035952795D6
:102CD0009A95E1F73C832B83C12CD12CE12CF12C6C
:102CE000312CC3018E0D9F1D9A838983E016F10656
:102CF000C4F51E821D822D813E812A153B054CF5AF
:102D0000C90187709927892B11F0330C0EC0ED8112
:102D1000FE81F7FD379683E0F595E7958A95E1F713
:102D2000EC0DFD1DE80DF91D349037FE0CC021E0BF
:102D300030E049815A816D817E81640D751D8DE47D
:102D400094E00E94D9098D819E8101969E838D8396
:102D5000D2CF9FEFE91AF90A2B813C81C20ED31E14
:102D6000C0CF26960FB6F894DEBF0FBECDBFDF9161
:102D7000CF911F910F91FF90EF90DF90CF90BF9078
:102D8000AF909F908F907F906F905F904F903F900B
:102D9000089590E0FC01E158F54F2491FC01E559BC
:102DA000F54F8491882399F090E0880F991FFC01DA
:102DB000EF59F54FA591B491FC01E95AF54F859172
:102DC00094918FB7F894EC91E22BEC938FBF089518
:102DD0003091AF03313208F04BC080918B038111E9
:102DE000FCCF9091AE0322E020938B0321E020934F
:102DF0008A032FEF2093890310928803309387036F
:102E0000EEE8F3E0A7E6B3E020E0321721F04191CD
:102E10004D932F5FFACF1092660320916603990FAE
:102E2000922B9093660390916503913061F4109218
:102E30006503909166039093BB009091BC0093FD55
:102E4000F8CF95EC01C095EE9093BC0090918B0368
:102E50009230E1F3909189039F3F79F0809189034B
:102E6000803241F080918903803331F084E005C0E5
:102E700081E003C082E001C083E010928D031092D4
:102E8000AF0310928C030895DF92EF92FF920F939D
:102E90001F93CF93DF93D82ED92FC62F809169042B
:102EA00090916A04009709F454C020916D0431E0B8
:102EB00030938C032093AE0310928D031092AF03D6
:102EC000DC01ED91FC910190F081E02D60E009952D
:102ED000ED2CFD2E11E0D1E08091690490916A04FF
:102EE000CC2371F11032C8F00E94E81680916D0475
:102EF000D0938C038093AE0310928D031092AF0396
:102F00008091690490916A04DC01ED91FC9101903B
:102F1000F081E02D60E0099511E0809169049091C5
:102F20006A04F7016491DC01ED91FC910190F0815C
:102F3000E02D09951F5FC150BFEFEB1AFB0ACCCF04
:102F4000DF91CF911F910F91FF90EF90DF900C9444
:102F5000E816E0917904F0917A04908180917F04E1
:102F60008095892380830D2D1D2FCC2309F439C032
:102F7000F80184912091670430916804232B31F08B
:102F80000E94C90EC1500F5F1F4FEFCF28E030E005
:102F900040E8E0917504F091760490917D04582FFB
:102FA000542319F05081952B03C05081909595239F
:102FB0009083E0917704F0917804508190917E04A1
:102FC000952B9083E0917704F09178045081909153
:102FD0007E04909595239083469521503109C9F63A
:102FE000D1CFDF91CF911F910F91FF90EF90DF90A4
:102FF00008959C0197FF05C031952195310941E065
:1030000001C040E0C90164E670E00E94A0235CE9D1
:103010005603C001579F900D1124280F391F4423D8
:10302000B9F03F932F937F936F9382EF92E09F933A
:103030008F938CEE94E09F938F930E94D8258DB749
:103040009EB708960FB6F8949EBF0FBE8DBF16C0F0
:103050003F932F937F936F9383EF92E09F938F9390
:103060008CEE94E09F938F930E94D8258DB79EB7E6
:1030700008960FB6F8949EBF0FBE8DBF8CEE94E0FD
:1030800008953FB7F8948091170590911805A09185
:103090001905B0911A0526B5A89B05C02F3F19F058
:1030A0000196A11DB11D3FBFBA2FA92F982F8827C8
:1030B000820F911DA11DB11DBC01CD0142E0660F23
:1030C000771F881F991F4A95D1F708951F920F9275
:1030D0000FB60F9211242F933F938F939F93AF932B
:1030E000BF938091120590911305A0911405B091A2
:1030F00015053091160523E0230F2D3720F4019696
:10310000A11DB11D05C026E8230F0296A11DB11D0A
:10311000209316058093120590931305A093140530
:10312000B09315058091170590911805A091190588
:10313000B0911A050196A11DB11D809317059093BA
:103140001805A0931905B0931A05BF91AF919F91EF
:103150008F913F912F910F900FBE0F901F90189558
:103160008EE291E090934E0480934D0480916B0425
:1031700090916C04009711F00E946D248EE994E008
:10318000892B61F08091AB049091AC040E946D2476
:103190008091A0049091A1040C946D240895CF9384
:1031A000DF9300D000D000D0CDB7DEB7789484B5DF
:1031B000826084BD84B5816084BD85B5826085BD33
:1031C00085B5816085BD80916E00816080936E00C1
:1031D00010928100809181008260809381008091B3
:1031E0008100816080938100809180008160809364
:1031F00080008091B10084608093B1008091B00024
:1032000081608093B00080917A00846080937A001E
:1032100080917A00826080937A0080917A00816048
:1032200080937A0080917A00806880937A0010926F
:10323000C100E091C003F091C10382E08083E0917E
:10324000BC03F091BD031082E091BE03F091BF0377
:1032500083E380831092C803E091C403F091C50317
:1032600086E08083E091C203F091C3038081806196
:103270008083E091C203F091C303808188608083E2
:10328000E091C203F091C303808180688083E09164
:10329000C203F091C30380818F7D808369E571E073
:1032A00080EB93E00E946C0C6CE671E080EB93E0A5
:1032B0000E946C0C8EE090E09093B9048093B80467
:1032C00082E390E09093B7048093B60485E090E0A9
:1032D0009093BB048093BA0465E871E080EB93E0BF
:1032E0000E946C0C6CE971E080EB93E00E946C0C26
:1032F00088EE93E090939904809398048091E90478
:103300008C3008F050C089E00E94C9168091E90411
:10331000E82FF0E09F01220F331FE20FF31FEC5361
:10332000FB4F9081907C996090831092EA041092F8
:10333000EB046CE00E9494232CE0829FB0011124E6
:1033400040E050E09B01240F351FF901EE0FFF1FF5
:103350002E0F3F1FF901EC53FB4F908196FD16C0D5
:103360004F5F5F4F4C30510569F781110FC01092CC
:10337000800082E08093810010928500109284008A
:10338000B19A80916F00826080936F00E091E904B0
:10339000F0E0CF01880F991FE80FF91FEC53FB4FA6
:1033A00080818064808301E010E010939D0400938D
:1033B0009C0480ED97E09093AA048093A90447E0D1
:1033C00050E063E872E08BEA94E00E94FD0B8BE230
:1033D000F82EF092B1041093B3040093B20484EA7F
:1033E00096E090939F0480939E0443E050E060E950
:1033F00072E080EA94E00E94FD0BF092A604109324
:10340000A8040093A70464EB71E080EB93E00E94B2
:103410006C0C6AEC71E080EB93E00E946C0C809184
:103420006B0490916C04892B11F520915304309119
:103430005404C901079697FD0796B3E095958795C3
:10344000BA95E1F72091510430915204AC01429FAA
:10345000C001439F900D529F900D11240E94D523CF
:1034600090936C0480936B04892B09F40FC10E9424
:103470002616209153043091540480915104909168
:103480005204213231050CF4F5C5B90160547109BB
:1034900077FF02C06F5F7F4F7595679582559109E1
:1034A00097FD019600E410E022E530E044E652E0AA
:1034B000959587950E94461682E080936E048091D0
:1034C000690490916A04892B09F4E8C58CE3809320
:1034D0006D04109263031092620310928D03109298
:1034E000AF0310928B0381E080938A0310926503EF
:1034F00061E082E10E943F1461E083E10E943F1499
:103500008091B9008E7F8093B9008091B9008D7F42
:103510008093B90088E48093B80085E48093BC0070
:1035200084EB96E0909361038093600385EB96E0D3
:1035300090935F0380935E038091740487FD1DC0A8
:103540000E94C91661E0809174040E943F1461E0FA
:1035500070E080E090E00E946E1460E0809174045E
:103560000E943F146AE070E080E090E00E946E14D8
:1035700061E0809174040E943F14809169049091ED
:103580006A04892B09F441C6209183043091840494
:10359000409185045091860460E074E284EF90E0ED
:1035A0000E946323DA01C9014097A109B109B695C8
:1035B000A795979587958093B80064E080E890E0A0
:1035C0000E9444176091530461508DE494E00E947E
:1035D000D00E64E08CE790E00E94441780916E0466
:1035E000813009F429C664E18DE494E00E94D00E94
:1035F00064E088E790E00E94441780915104909124
:1036000052048038910509F02AC6809153049091A4
:1036100054048032910509F011C664E084E790E01B
:103620000E94441769ED8DE494E00E94D00E8091D1
:103630006E04813009F42FC661EF8DE494E00E949E
:10364000D00E66E088E690E00E94441780916904FD
:1036500090916A04892B09F420C620918704309147
:1036600088044091890450918A0460E074E284EFF8
:1036700090E00E946323DA01C9014097A109B109D2
:10368000B695A795979587958093B80081E090E0CF
:103690009093600480935F0490935E0480935D0434
:1036A00010928C0410928B0410928F04109290044C
:1036B000109291041092920461EE71E080EB93E01D
:1036C0000E946C0C44244A94A3E05A2E612C712C65
:1036D0008FB7F894009112051091130520911405ED
:1036E000309115058FBF4091B6045091B704052E57
:1036F000000C660B770B8091C0049091C104A091DF
:10370000C204B091C304840F951FA61FB71F801772
:103710009107A207B307BCF58091B8048E3008F07A
:103720008E508770806480937C0080917A008064E2
:1037300080937A0080917A0086FDFCCF909178008A
:10374000409179002091BE043091BF046091BC0487
:103750007091BD04261B370B892F90E0942B820FAC
:10376000931F9093BF048093BE046091BA0470913C
:10377000BB040E94A0237093BD046093BC047093AB
:10378000B5046093B4048FB7F894009112051091BA
:10379000130520911405309115058FBF40919804B1
:1037A00050919904052E000C660B770B80919404C0
:1037B00090919504A0919604B0919704840F951F61
:1037C000A61FB71F80179107A207B3070CF0D3C03D
:1037D000A091B404B091B50480919C0490919D0493
:1037E0002BE0289F8001299F100D11240C561B4FA0
:1037F00020EA3FE00E94B423A30192010E94FA2232
:10380000D8011A968D919C911B97821B930B9C015A
:1038100097FF04C022273327281B390B2B30310593
:103820000CF4A9C024E630E0B9010E94A0238091E5
:103830009A0490919B04680F791F161617062CF0B6
:1038400010929B0410929A040CC0643671052CF4FB
:1038500070939B0460939A0404C030939B0420935C
:103860009A04A0919A04B0919B0424EB30E00E944A
:10387000B42324E630E040E050E00E94FA22C9017F
:103880002032B2E03B070CF040C037FD06C0253BBC
:1038900031052CF084EB90E002C080E090E02091B4
:1038A000EA04A8E8B0E06D01C21AD10827FDD3945C
:1038B000D601AA0FBB1FAA0FBB1F6D01BB0FEE08DD
:1038C000FF084091EB0428E532E0241B310947FD55
:1038D0003395220F331F220F331FA901330F660BBD
:1038E000770B9A01AB012C193D094E095F09DC01E8
:1038F0000E94242324EB30E040E050E00E94FA22B2
:10390000C20ED31EE41EF51EC6012091E9042C3020
:1039100090F53091EA04A8E8B0E0A31BB10937FDA7
:10392000B395AA0FBB1FAA0FBB1F8A179B078CF06A
:103930003091EB0448E552E0431B510937FD5395A4
:10394000440F551F440F551FDC01481759070CF44D
:10395000DA011297AA0FBB1F3FB7F894822F90E0AD
:10396000FC01EE0FFF1F8E0F9F1FFC01EC53FB4F5E
:10397000B283A1833FBF80918F0490919004A09166
:103980009104B09192048E38ECE09E07A105B10538
:103990000CF090C08A38FCE09F07A105B1050CF03F
:1039A000D4C282329105A105B1050CF057C08F3108
:1039B0009105A105B1050CF096C181309105A105D5
:1039C000B10509F43BC3F4F5892B8A2B8B2B09F045
:1039D00015C30E94261682E08093610410925A0457
:1039E0001092590410925C0410925B0466EF71E02F
:1039F0008DE494E00E946C0C81E08093610410924D
:103A00005A041092590488E190E090935C048093EA
:103A10005B0461E072E08DE494E00E94800C62E15E
:103A200072E08DE494E00E94800C66E172E08DE427
:103A300094E00E946C0C0E94910F81E090E0A0E065
:103A4000B0E0D3C282309105A105B10509F48CC064
:103A50000397A105B10509F446C1D0C2843421E021
:103A60009207A105B105A4F4803441E09407A105B3
:103A7000B1050CF0C7C182329105A105B10509F469
:103A800054C287339140A105B10509F43DC2B6C2C5
:103A90008434E1E09E07A105B10509F451C28B34DD
:103AA0009140A105B10509F0A9C283E090E0A0E032
:103AB000B0E09BC285362DE79207A105B10509F458
:103AC00047C254F588395CE09507A105B10594F427
:103AD0008439ECE09E07A105B1050CF06FC28E3869
:103AE0009C40A105B10509F089C28AE89CE0A0E0EC
:103AF000B0E07BC288392CE09207A105B10509F43A
:103B000070C28F399C40A105B10509F077C280E2EF
:103B100090E0A0E0B0E069C283385DE79507A105B9
:103B2000B10509F428C274F48F36FDE79F07A1059B
:103B3000B10509F40DC289379D47A105B10509F406
:103B40000CC25CC28D3D4DE79407A105B10509F497
:103B50003AC2873E9D47A105B10509F04FC280E4F6
:103B600091E0A0E0B0E041C20E94261680919C0442
:103B700090919D042BE0289FB001299F700D112486
:103B8000FB01EC56FB4FE284F38460567B4FCE0181
:103B900001960E943D0CA091B404B091B50420EAB6
:103BA0003FE00E94B423A30192010E94FA2249013E
:103BB0005A016701C21AD30A00919A0410919B041A
:103BC00081E08093610410925A041092590410927B
:103BD0005C0410925B0468E172E08DE494E00E9462
:103BE0006C0C10925A041092590488E090E0909363
:103BF0005C0480935B046DE272E08DE494E00E94CB
:103C0000800C4D815E8169817A818DE494E00E940F
:103C100076056FE072E08DE494E00E94800CC701AD
:103C20000E94F917BC018DE494E00E94800C66E1CB
:103C300072E08DE494E00E946C0C10925A04109291
:103C4000590490E1E92EF12CF0925C04E0925B04BF
:103C500063E372E08DE494E00E94800CC4010E9452
:103C6000F917BC018DE494E00E946C0C80E490E0B4
:103C700090935A0480935904F0925C04E0925B04A0
:103C800069E372E08DE494E00E94800CC6010E941A
:103C9000F917BC018DE494E00E946C0C10925A0458
:103CA0001092590488E190E090935C0480935B0447
:103CB0006FE372E08DE494E00E94800CA801110F84
:103CC000660B770B8DE494E00E94A5156BE472E01F
:103CD0008DE494E00E946C0C0E94910F89819A817E
:103CE0000E946D24ABC10E94261681E0809361047E
:103CF00010925A041092590410925C0410925B04C2
:103D00006EE472E08DE494E00E946C0C10925A0410
:103D10001092590488E090E090935C0480935B04D7
:103D200080918F0490919004A0919104B09192049D
:103D30004F97A105B10519F46CE572E002C068E483
:103D400072E08DE494E00E94800C6FE572E08DE4F7
:103D500094E00E94800C80919C0490919D042BE043
:103D6000289FB001299F700D112460567B4FCE0112
:103D700001960E943D0CCE0101960E94C9108981D6
:103D80009A810E946D2410925A041092590480E185
:103D900090E090935C0480935B0480918F049091F9
:103DA0009004A0919104B09192048097A105B1056F
:103DB00019F46CE572E002C068E472E08DE494E00E
:103DC0000E94800C67E672E08DE494E00E946C0C27
:103DD00010925A041092590488E190E090935C0488
:103DE00080935B0480918F0490919004A091910442
:103DF000B09192048197A105B10509F076C06CE5F8
:103E000072E075C00E94261681E0809361041092D2
:103E10005A041092590410925C0410925B046EE4F0
:103E200072E08DE494E00E946C0C10925A0410929F
:103E3000590488E090E090935C0480935B04809147
:103E40008F0490919004A0919104B09192048134D8
:103E50009140A105B10509F06DC06CE572E08DE4FB
:103E600094E00E94800C6EE772E08DE494E00E9482
:103E70006C0C10925A041092590480E190E09093D7
:103E80005C0480935B0480918F0490919004A091D6
:103E90009104B091920482349140A105B10509F0DA
:103EA0004CC06CE572E08DE494E00E94800C6BE8FD
:103EB00072E08DE494E00E946C0C10925A0410920F
:103EC000590488E190E090935C0480935B048091B6
:103ED0008F0490919004A0919104B0919204833446
:103EE0009140A105B10509F48ACF68E472E08DE440
:103EF00094E00E94800C67E772E08DE494E00E94F9
:103F00006C0C0E94910F9AC080919C0490919D042A
:103F1000019729F410929D0410929C0406C081E040
:103F200090E090939D0480939C048FE190E0A0E04A
:103F3000B0E05BC068E472E092CF68E472E0B3CFB7
:103F400081E491E0A0E0B0E050C081E090E038C0B2
:103F50008BE89CE0A0E0B0E048C08091B1048B32D7
:103F600011F48DE201C08BE28093B1048CE89CE0F7
:103F7000A0E0B0E03AC08091B2049091B3048230E6
:103F8000910571F02CF40197A1F482E090E00DC04E
:103F90008530910541F00A9761F481E090E005C019
:103FA00085E090E002C08AE090E09093B3048093B3
:103FB000B2048DE89CE0A0E0B0E017C080E090E0A3
:103FC0000E94A8143BC08091A6048B3211F48DE2AC
:103FD00001C08BE28093A60486E99CE0A0E0B0E0FB
:103FE00004C084E99CE0A0E0B0E080938F0490934B
:103FF0009004A0939104B093920420C064E972E00D
:1040000080EB93E00E94800C40918F0450919004CB
:10401000609191047091920480EB93E00E94A51549
:1040200066E571E080EB93E00E94570C10928F04DC
:10403000109290041092910410929204E0E3F5E043
:104040008491E1E8FAE00491EDE6FAE0149111239D
:1040500009F453C181110E941614E12FF0E0EE0F14
:10406000FF1FEC5DFA4FA591B491EC910E2309F47A
:1040700044C126C1B9016052710977FF02C06F5F68
:104080007F4F759567958357910997FD019600E2DB
:1040900010E023E730E044E850E00ACA809172045F
:1040A0000E94C916809173040E94C91680917204FF
:1040B000082E000C990BFC01E559F54FE491F0E056
:1040C000EE0FFF1FE95AF54F2591349130937A0492
:1040D00020937904FC01E158F54FE491E0937F04CB
:1040E00080917304082E000C990BFC01E559F54FE3
:1040F000E491F0E0EE0FFF1FE95AF54FA591B4915E
:10410000B0937C04A0937B04FC01E158F54FE4914B
:10411000E09380048C91E82BEC938091670490915C
:104120006804892B89F11FB7F89480916403811189
:1041300024C0E5E7FAE08491E9E8FAE09491E82FF9
:10414000F0E0EE0FFF1FEF59F54FA591B491EC9100
:10415000E92321F461E08AE00E943F148AE00E9492
:10416000C9168CB580618CBD8CB580648CBD8DE02A
:104170000E94C9168BE00E94C916809164038F5F6C
:10418000809364031FBFD8C9809170040E94C91630
:10419000809171040E94C91680917004082E000C51
:1041A000990BFC01E559F54FE491F0E0EE0FFF1F8C
:1041B000E95AF54F25913491309376042093750494
:1041C000FC01E158F54FE491E0937D048091710486
:1041D000082E000C990BFC01E559F54FE491F0E035
:1041E000EE0FFF1FE95AF54FA591B491B0937804F3
:1041F000A0937704FC01E158F54FE491E0937E042D
:104200008C91E095E823EC9397C980916704909195
:104210006804892B31F080918104909182040E947E
:10422000340FE0917B04F0917C04908180918004B4
:10423000809589238083C1C960E1D6C98034910506
:1042400009F0F0C963E081E790E00E944417809193
:104250006E04813011F06FEC19C06FE917C0803621
:10426000910509F0DFC9809153049091540440975F
:1042700009F0D8C963E08EE690E00E94441780916F
:104280006E04813011F06FEA01C060E18DE494E0CA
:104290000E94D00EC7C962E2D0C9E0917B04F091C0
:1042A0007C04908180918004892B808380916704B5
:1042B00090916804892B09F4E9C90E94330FE6C97B
:1042C00080918B0490918C04892B09F078C081E057
:1042D00090E090938C0480938B042FB7F894809196
:1042E000120590911305A0911405B09115052FBFEB
:1042F00090938E0480938D0462C080918B04909182
:104300008C04019709F05BC010928C0410928B040E
:104310002FB7F8948091120590911305A091140580
:10432000B09115052FBF20918D0430918E04821B12
:10433000930B90938E0480938D048C3291400CF4F7
:1043400047C081E08093930468EA72E080EB93E0D9
:104350000E946C0C8091930420918F043091900402
:1043600040919104509192048823B9F1AAE0B0E001
:104370000E941923DC01CB010196A11DB11D809380
:104380008F0490939004A0939104B09392046FEBE8
:1043900072E080EB93E00E94800C40918F0450917A
:1043A0009004609191047091920480EB93E00E94DC
:1043B000A51566E571E080EB93E00E94570C65E07F
:1043C00070E080E090E00E946E140E94780680C940
:1043D0001092930463EB72E0B9CFDA01C901CCCF3C
:1043E0001092B3031092B20388EE93E0A0E0B0E025
:1043F0008093B4039093B503A093B603B093B7032F
:104400002AE031E03093B1032093B00325EC30E093
:104410003093BD032093BC0324EC30E03093BF0302
:104420002093BE0320EC30E03093C1032093C003FF
:1044300021EC30E03093C3032093C20322EC30E040
:104440003093C5032093C40326EC30E03093C703B8
:104450002093C6031092C9031092CA031092CB0393
:104460001092CC031092F9041092F8048093FA048D
:104470009093FB04A093FC04B093FD048CE191E0C5
:104480009093F7048093F6041092C0041092C10434
:104490001092C2041092C30410920E0510920F05E0
:1044A0001092100510921105109294041092950428
:1044B00010929604109297041092A1041092A004F6
:1044C0001092A3041092A2041092A5041092A404C6
:1044D00040E050E068E571E080EA94E00E94FD0B66
:1044E0001092AC041092AB041092AE041092AD0482
:1044F0001092B0041092AF0440E050E068E571E023
:104500008BEA94E00E94FD0B1092500410924F042D
:1045100020E830E0309352042093510480E290E090
:10452000909354048093530430935604209355047D
:1045300090935804809357041092620410925A0486
:104540001092590410925C0410925B0481E08093F5
:1045500061042FEF3FEF3093600420935F043093AA
:104560005E0420935D0480936304109264041092AF
:104570006604109265048EE291E090934E0480935D
:104580004D04109268041092670486EF94E09093B3
:104590006A048093690410926C0410926B049FEF7C
:1045A00090937004909371049093720490937304A9
:1045B0009093740480E5809381041092820480912A
:1045C000E8048C30A0F491E0980F9093E804809375
:1045D000E90490E0FC01EE0FFF1F8E0F9F1FFC010E
:1045E000EC53FB4F88EB9BE092838183089590937B
:1045F000E9040895052E97FB1EF400940E941123F0
:1046000057FD07D00E94632307FC03D04EF40C949F
:10461000112350954095309521953F4F4F4F5F4F57
:10462000089590958095709561957F4F8F4F9F4F1E
:1046300008950E948523A59F900DB49F900DA49F7F
:10464000800D911D11240895B7FF0C9419230E9429
:104650001923821B930B08952F923F924F925F92E2
:104660006F927F928F929F92AF92BF92CF92DF9282
:10467000EF92FF920F931F93CF93DF93CDB7DEB7E7
:10468000CA1BDB0B0FB6F894DEBF0FBECDBF09947B
:104690002A88398848885F846E847D848C849B84D2
:1046A000AA84B984C884DF80EE80FD800C811B81E0
:1046B000AA81B981CE0FD11D0FB6F894DEBF0FBE0F
:1046C000CDBFED010895A1E21A2EAA1BBB1BFD016F
:1046D0000DC0AA1FBB1FEE1FFF1FA217B307E407E1
:1046E000F50720F0A21BB30BE40BF50B661F771F39
:1046F000881F991F1A9469F7609570958095909519
:104700009B01AC01BD01CF010895A29FB001B39FF1
:10471000C001A39F700D811D1124911DB29F700DCA
:10472000811D1124911D0895991B79E004C0991FE2
:10473000961708F0961B881F7A95C9F780950895FB
:1047400097FB072E16F4009407D077FD09D00E943E
:10475000BB2307FC05D03EF4909581959F4F0895AB
:10476000709561957F4F08950E948523B7FF089546
:10477000821B930B0895AA1BBB1B51E107C0AA1F04
:10478000BB1FA617B70710F0A61BB70B881F991FF2
:104790005A95A9F780959095BC01CD010895EE0F2B
:1047A000FF1F0590F491E02D09940F931F93CF9371
:1047B000DF938230910510F482E090E0E0911D05D6
:1047C000F0911E0520E030E0A0E0B0E0309719F154
:1047D000408151810281138148175907C8F084171D
:1047E000950769F4109731F012960C93129713966F
:1047F0001C9327C000931D0510931E0522C0211590
:10480000310519F04217530718F49A01BD01EF0161
:10481000DF01F801DBCF21153105F9F0281B390B39
:104820002430310580F48A819B816115710521F066
:10483000FB019383828304C090931E0580931D0522
:10484000FE01329644C0FE01E20FF31F8193919363
:1048500022503109398328833AC020911B053091B9
:104860001C05232B41F42091020130910301309368
:104870001C0520931B052091000130910101211599
:10488000310541F42DB73EB7409104015091050127
:10489000241B350BE0911B05F0911C05E217F30773
:1048A000A0F42E1B3F0B2817390778F0AC014E5FA0
:1048B0005F4F2417350748F04E0F5F1F50931C05BC
:1048C00040931B058193919302C0E0E0F0E0CF019B
:1048D000DF91CF911F910F910895CF93DF930097B0
:1048E00009F481C0FC01329713821282A0911D0548
:1048F000B0911E05109781F420813181820F931FA2
:1049000020911B0530911C052817390751F5F093AC
:104910001C05E0931B0567C0ED0120E030E0CE17D9
:10492000DF0740F44A815B819E0141155105F1F09A
:10493000EA01F5CFD383C28340815181840F951F53
:10494000C817D90759F488819981840F951F029659
:10495000918380838A819B81938382832115310592
:1049600029F4F0931E05E0931D053DC0E901FB838A
:10497000EA8349915991C40FD51FEC17FD0761F4E3
:1049800080819181840F951F0296E9019983888324
:10499000828193819B838A83E0E0F0E012968D917F
:1049A0009C911397009719F0FD01DC01F7CF8D91D1
:1049B0009C9111979D012E5F3F4F820F931F209175
:1049C0001B0530911C052817390769F4309729F425
:1049D00010921E0510921D0502C013821282B09320
:1049E0001C05A0931B05DF91CF910895A0E0B0E0D6
:1049F000ECEFF4E20C943023EC01009721F4CB01AE
:104A00000E94D523B4C0FC01E60FF71F9C01225081
:104A10003109E217F30708F4A8C0D9010D911C91E0
:104A2000119706171707B0F00530110508F49BC061
:104A3000C80104978617970708F495C0025011091A
:104A4000061B170B019311936D937C93CF010E946A
:104A50006D2489C05B01A01AB10A4C01800E911E21
:104A6000A0911D05B0911E05612C712CE12CF12C3B
:104A7000109709F446C08D919C911197A815B9051E
:104A8000B1F56C0142E0C40ED11CCA14DB0478F10C
:104A90004C018A189B08640142E0C40ED11C129696
:104AA000BC9012971396AC91B5E0CB16D10440F0B0
:104AB000B282A38391828082D9016D937C9309C0D5
:104AC0000E5F1F4F800F911FF90191838083EB2DA3
:104AD000FA2FE114F10431F0D7011396FC93EE9311
:104AE000129741C0F0931E05E0931D053CC0681667
:104AF000790608F43C017D0112960D90BC91A02D21
:104B0000B7CF80911B0590911C0588169906E1F49A
:104B100066167706C8F48091000190910101009714
:104B200041F48DB79EB74091040150910501841B5B
:104B3000950BE817F907C8F4F0931C05E0931B05E3
:104B4000F901718360830FC0CB010E94D5237C01E2
:104B5000009759F0A801BE010E94C125CE010E9414
:104B60006D24C70104C0CE0102C080E090E0CDB743
:104B7000DEB7EEE00C944C2381E090E0F8940C94C6
:104B80008B28FB01DC0102C001900D924150504086
:104B9000D8F70895DC0101C06D9341505040E0F713
:104BA0000895FB01DC0101900D920020E1F70895CA
:104BB000AEE0B0E0EEEDF5E20C943A230D891E89EB
:104BC00086E08C831A8309838FEF9FE79E838D8312
:104BD000AE01475E5F4F6F89788DCE0101960E94CE
:104BE000FA25EF81F885E00FF11F10822E96E4E0A0
:104BF0000C945623ABE0B0E0E0E0F6E20C942C23FA
:104C00006C017B018A01FC0117821682838181FF7E
:104C1000CCC1CE0101963C01F6019381F70193FDD1
:104C2000859193FF81917F01882309F4BAC1853270
:104C300039F493FD859193FF81917F01853229F4A9
:104C4000B60190E00E94F127E7CF912C212C312C66
:104C5000FFE1F315D8F08B3279F038F4803279F037
:104C60008332A1F4232D20611DC08D3261F0803389
:104C700069F4232D216016C0832D8260382EE32D28
:104C8000E4603E2E2AC0F32DF8601DC037FC2DC015
:104C900020ED280F2A3040F08E32B9F436FC81C165
:104CA000232D2064322E19C036FE06C08AE0989E5D
:104CB000200D1124922E11C0EAE02E9E200D112409
:104CC000222EF32DF0623F2E08C08C3621F4832D66
:104CD0008068382E02C0883641F4F70193FD859133
:104CE00093FF81917F018111B3CF982F9F7D9554C0
:104CF000933028F40C5F1F4F9FE399830DC08336D8
:104D000031F0833771F0833509F059C021C0F801C3
:104D1000808189830E5F1F4F88248394912C5301D7
:104D200013C02801F2E04F0E511CF801A080B180A1
:104D300036FE03C0692D70E002C06FEF7FEFC50142
:104D40000E94E6274C018201F32DFF773F2E16C00B
:104D5000280122E0420E511CF801A080B18036FEED
:104D600003C0692D70E002C06FEF7FEFC5010E94A4
:104D7000DB274C01F32DF0683F2E820133FC1BC072
:104D8000822D90E088169906B0F4B60180E290E09A
:104D90000E94F1272A94F4CFF50137FC859137FE64
:104DA00081915F01B60190E00E94F12721102A94C1
:104DB00021E0821A91088114910471F7E8C08436C9
:104DC00011F0893641F5F80137FE07C06081718125
:104DD000828193810C5F1F4F08C060817181072E13
:104DE000000C880B990B0E5F1F4FF32DFF763F2EA3
:104DF00097FF09C090958095709561957F4F8F4F73
:104E00009F4FF0683F2E2AE030E0A3010E942D283A
:104E1000882E861845C0853731F4232D2F7EB22E7B
:104E20002AE030E025C0932D997FB92E8F36C1F04E
:104E300018F4883579F0B5C0803719F0883721F03B
:104E4000B0C0E92FE061BE2EB4FE0DC0FB2DF460B2
:104E5000BF2E09C034FE0AC0292F2660B22E06C01C
:104E600028E030E005C020E130E002C020E132E07F
:104E7000F801B7FE07C060817181828193810C5F68
:104E80001F4F06C06081718180E090E00E5F1F4F70
:104E9000A3010E942D28882E8618FB2DFF773F2E18
:104EA00036FE0DC0232D2E7FA22E891458F434FE19
:104EB0000BC032FC09C0832D8E7EA82E05C0B82CF5
:104EC000A32C03C0B82C01C0B92CA4FE0FC0FE0156
:104ED000E80DF11D8081803321F49A2D997EA92E51
:104EE00009C0A2FE06C0B394B39404C08A2D86788C
:104EF00009F0B394A3FC11C0A0FE06C0B21488F45C
:104F0000280C922C9B180EC0B21460F4B60180E2FB
:104F100090E00E94F127B394F7CFB21418F42B1845
:104F200002C0982C212CA4FE10C0B60180E390E0B2
:104F30000E94F127A2FE17C0A1FC03C088E790E001
:104F400002C088E590E0B6010CC08A2D867859F041
:104F5000A1FE02C08BE201C080E2A7FC8DE2B60197
:104F600090E00E94F127891438F4B60180E390E0C4
:104F70000E94F1279A94F7CF8A94F301E80DF11D6E
:104F80008081B60190E00E94F1278110F5CF2220A8
:104F900009F442CEB60180E290E00E94F1272A9403
:104FA000F6CFF6018681978102C08FEF9FEF2B9697
:104FB000E2E10C944823FC0105906150704001101F
:104FC000D8F7809590958E0F9F1F0895FC01615032
:104FD000704001900110D8F7809590958E0F9F1F1B
:104FE00008950F931F93CF93DF93FB01238121FD3E
:104FF00003C08FEF9FEF2CC022FF16C04681578160
:10500000248135814217530744F4A081B1819D0169
:105010002F5F3F4F318320838C93268137812F5F11
:105020003F4F3783268314C08B01EC01FB010084C2
:10503000F185E02D0995892BE1F6D80116968D9121
:105040009C911797019617969C938E931697CE0175
:10505000DF91CF911F910F910895FA01AA2728306F
:1050600051F1203181F1E8946F936E7F6E5F7F4F35
:105070008F4F9F4FAF4FB1E03ED0B4E03CD0670FB1
:10508000781F891F9A1FA11D680F791F8A1F911D04
:10509000A11D6A0F711D811D911DA11D20D009F454
:1050A00068943F912AE0269F11243019305D319396
:1050B000DEF6CF010895462F4770405D4193B3E07F
:1050C0000FD0C9F7F6CF462F4F70405D4A3318F026
:1050D000495D31FD4052419302D0A9F7EACFB4E0D7
:1050E000A6959795879577956795BA95C9F700978F
:1050F0006105710508959B01AC010A2E0694579530
:10510000479537952795BA95C9F7620F731F841F86
:10511000951FA01D089515E0CBE4D5E004C0FE0165
:105120000E94CF232196CC34D107C9F7F894FFCF42
:1051300000001F0580000000000009067605A0059C
:105140005606D105AF05C305000000000F07E206B3
:10515000930AB606DA06C606B70600000000270B5B
:105160007605930A920A3E07B606D909B109CD0918
:10517000C109E009B606FC07370F980ADC0AFA08ED
:10518000DD08700811080D0A0053657269616C2012
:10519000696E697469616C697A65640053656E73E0
:1051A0006F72436C61737320696E6974203A206476
:1051B000656275740053656E736F72436C617373CF
:1051C00020696E6974203A2066696E0052656775C1
:1051D0006C6174696F6E20696E6974203A20646531
:1051E00062757400526567756C6174696F6E2069D1
:1051F0006E6974203A2066696E006166666963684C
:1052000065757220696E6974203A206465627574F0
:105210000061666669636865757220696E697420ED
:105220003A2066696E00526567756C6174696F6ECD
:105230000028632920422E2046726F6765722C2059
:105240002800312E30002900726567756C61746921
:105250006F6E20636861756666616765006D6F6477
:105260006520006D65732020006469666620006318
:105270006861756666616765202000202500436FC0
:105280006E66696775726174696F6E002A20004DE1
:105290006F6465203A2000436F6E666967757265BA
:1052A000204D6F646573007265746F7572004D6F89
:1052B000646520434F4E464F5254004D6F64652045
:1052C00045434F00456372616E20696E657869736E
:1052D00074616E74203A20006170707569206C6F83
:1052E0006E6700617070756920636F757274006419
:1052F0006973706C6179206D6F6465203A20004D90
:105300006F64652000436F6E7369676E65203D2092
:105310000073656E732000696E6372656D656E74EF
:0A53200020002D25642E25640000F6
:107800000C94343C0C94513C0C94513C0C94513CE1
:107810000C94513C0C94513C0C94513C0C94513CB4
:107820000C94513C0C94513C0C94513C0C94513CA4
:107830000C94513C0C94513C0C94513C0C94513C94
:107840000C94513C0C94513C0C94513C0C94513C84
:107850000C94513C0C94513C0C94513C0C94513C74
:107860000C94513C0C94513C11241FBECFEFD8E036
:10787000DEBFCDBF11E0A0E0B1E0ECE9FFE702C060
:1078800005900D92A230B107D9F712E0A2E0B1E065
:1078900001C01D92AD30B107E1F70E942D3D0C945F
:1078A000CC3F0C94003C982F959595959595959582
:1078B000905D8F708A307CF0282F295A8091C0000B
:1078C00085FFFCCF9093C6008091C00085FFFCCF60
:1078D0002093C6000895282F205DF0CF982F809127
:1078E000C00085FFFCCF9093C6000895EF92FF92F1
:1078F0000F931F93EE24FF2487018091C00087FD22
:1079000017C00894E11CF11C011D111D81E4E8164B
:1079100082E4F8068FE0080780E0180770F3E09132
:107920000401F091050109958091C00087FFE9CF1E
:107930008091C6001F910F91FF90EF9008950E94D3
:10794000763C982F8091C00085FFFCCF9093C600B5
:1079500091362CF490330CF09053892F089597555D
:10796000892F08951F930E949F3C182F0E949F3CCF
:107970001295107F810F1F9108951F93182F882350
:1079800021F00E94763C1150E1F71F9108951F935A
:10799000182F0E94763C803249F0809103018F5F5E
:1079A000809303018530C1F01F9108958091C0003C
:1079B00085FFFCCF84E18093C6008091C00085FFE5
:1079C000FCCF1093C6008091C00085FFFCCF80E102
:1079D0008093C6001F910895E0910401F091050184
:1079E00009951F9108950E94763C803241F0809164
:1079F00003018F5F80930301853081F008958091AA
:107A0000C00085FFFCCF84E18093C6008091C00058
:107A100085FFFCCF80E18093C6000895E0910401CA
:107A2000F09105010995089540E951E08823A1F0FE
:107A30002D9A28EE33E0FA013197F1F721503040CA
:107A4000D1F72D9828EE33E0FA013197F1F7215064
:107A50003040D1F7815061F708953F924F925F9285
:107A60006F927F928F929F92AF92BF92CF92DF924E
:107A7000EF92FF920F931F93CF93DF93000080E16B
:107A80008093C4001092C50088E18093C10086E015
:107A90008093C2005098589A259A81E00E94143D24
:107AA00024E1F22E9EE1E92E85E9D82E0FE0C02ECA
:107AB00010E1B12EAA24A394B1E49B2EA6E58A2E50
:107AC000F2E57F2EE0E26E2E79E4572E63E5462E36
:107AD00050E5352E0E94763C8033B1F18133B9F107
:107AE000803409F46FC0813409F476C0823409F41B
:107AF00085C0853409F488C0803531F1823521F1A3
:107B0000813511F1853509F485C0863509F48DC0BC
:107B1000843609F496C0843709F403C1853709F423
:107B200072C1863709F466C0809103018F5F80932C
:107B30000301853079F6E0910401F0910501099582
:107B40000E94763C803351F60E94F33CC3CF0E94E2
:107B5000763C803249F78091C00085FFFCCFF092DF
:107B6000C6008091C00085FFFCCF9092C600809136
:107B7000C00085FFFCCF8092C6008091C00085FFC9
:107B8000FCCF7092C6008091C00085FFFCCF609250
:107B9000C6008091C00085FFFCCF5092C600809146
:107BA000C00085FFFCCF4092C6008091C00085FFD9
:107BB000FCCF3092C6008091C00085FFFCCFB09210
:107BC000C60088CF0E94763C863808F4BDCF0E945C
:107BD000763C0E94F33C7ECF0E94763C803809F4CC
:107BE0009CC0813809F40BC1823809F43CC1883942
:107BF00009F48FC080E00E94C73C6CCF84E10E94F2
:107C0000BD3C0E94F33C66CF85E00E94BD3C0E94D3
:107C1000F33C60CF0E94763C809306010E94763C44
:107C2000809307010E94F33C55CF0E94763C80333D
:107C300009F41DC183E00E94BD3C80E00E94C73C66
:107C400049CF0E94763C809309020E94763C809343
:107C5000080280910C028E7F80930C020E94763C79
:107C6000853409F415C18091080290910902892B8D
:107C700089F000E010E00E94763CF801E85FFE4FDA
:107C800080830F5F1F4F80910802909109020817AF
:107C9000190788F30E94763C803209F045CF809125
:107CA0000C0280FF01C16091060170910701660F0F
:107CB000771F7093070160930601A0910802B091AD
:107CC00009021097C9F0E8E0F1E09B01AD014E0F09
:107CD0005F1FF999FECF32BD21BD819180BDFA9A17
:107CE000F99A2F5F3F4FE417F50799F76A0F7B1F4B
:107CF00070930701609306018091C00085FFFCCF5F
:107D0000F092C6008091C00085FFFCCFB092C60003
:107D1000E1CE83E00E94C73CDDCE82E00E94C73CFA
:107D2000D9CE0E94763C809309020E94763C8093D3
:107D300008028091060190910701880F991F909386
:107D40000701809306010E94763C853409F4A6C0A1
:107D500080910C028E7F80930C020E94763C8032D0
:107D600009F0B8CE8091C00085FFFCCFF092C6002C
:107D7000609108027091090261157105B9F140E046
:107D800050E080910C02A82FA170B82FB27011C0E2
:107D9000BB2309F45CC0E0910601F0910701319624
:107DA000F0930701E09306014F5F5F4F46175707B7
:107DB000E8F4AA2369F3F999FECF209106013091E6
:107DC000070132BD21BDF89A90B58091C00085FFB2
:107DD000FCCF9093C6002F5F3F4F30930701209355
:107DE00006014F5F5F4F4617570718F38091C00099
:107DF00085FDE5CE8091C00085FFF8CFE0CE81E023
:107E00000E94C73C67CE0E94763C803209F08CCE3F
:107E10008091C00085FFFCCFF092C6008091C00029
:107E200085FFFCCFE092C6008091C00085FFFCCFAB
:107E3000D092C6008091C00085FFFCCFC092C600E2
:107E40008091C00085FFFCCFB092C60043CEE09188
:107E50000601F091070194918091C00085FFFCCF4D
:107E60009093C6009CCF80E10E94C73C33CE0E9415
:107E7000763C0E94763C182F0E94763C112309F430
:107E800083C0113009F484C08FE00E94C73C22CE29
:107E900080910C02816080930C02E5CE80910C02EF
:107EA000816080930C0259CF809107018823880F4D
:107EB000880B8A2180930B02809106019091070123
:107EC000880F991F90930701809306018091080203
:107ED00080FF09C080910802909109020196909359
:107EE000090280930802F894F999FECF1127E091D6
:107EF0000601F0910701C8E0D1E08091080290915D
:107F00000902103091F40091570001700130D9F34B
:107F100003E000935700E89500915700017001308D
:107F2000D9F301E100935700E89509901990009169
:107F3000570001700130D9F301E000935700E89534
:107F40001395103498F011270091570001700130FB
:107F5000D9F305E000935700E895009157000170B0
:107F60000130D9F301E100935700E895329602976A
:107F700009F0C7CF103011F00296E5CF112480919F
:107F8000C00085FFB9CEBCCE8EE10E94C73CA2CD19
:0C7F900085E90E94C73C9ECDF894FFCF0D
:027F9C00800063
:040000030000780081
:00000001FF
